{
  "contractName": "NeuralNetworkWeights",
  "abi": [
    {
      "inputs": [],
      "stateMutability": "nonpayable",
      "type": "constructor"
    },
    {
      "anonymous": false,
      "inputs": [
        {
          "indexed": false,
          "internalType": "string",
          "name": "weightsHash",
          "type": "string"
        }
      ],
      "name": "AggregatedWeightsStored",
      "type": "event"
    },
    {
      "anonymous": false,
      "inputs": [
        {
          "indexed": true,
          "internalType": "address",
          "name": "collaborator",
          "type": "address"
        }
      ],
      "name": "CollaboratorAdded",
      "type": "event"
    },
    {
      "anonymous": false,
      "inputs": [
        {
          "indexed": true,
          "internalType": "address",
          "name": "collaborator",
          "type": "address"
        }
      ],
      "name": "CollaboratorRemoved",
      "type": "event"
    },
    {
      "anonymous": false,
      "inputs": [
        {
          "indexed": true,
          "internalType": "uint256",
          "name": "nodeId",
          "type": "uint256"
        },
        {
          "indexed": false,
          "internalType": "string",
          "name": "weightsHash",
          "type": "string"
        }
      ],
      "name": "WeightsStored",
      "type": "event"
    },
    {
      "inputs": [],
      "name": "aggregatedWeightsHash",
      "outputs": [
        {
          "internalType": "string",
          "name": "",
          "type": "string"
        }
      ],
      "stateMutability": "view",
      "type": "function",
      "constant": true
    },
    {
      "inputs": [
        {
          "internalType": "address",
          "name": "",
          "type": "address"
        }
      ],
      "name": "collaborators",
      "outputs": [
        {
          "internalType": "bool",
          "name": "",
          "type": "bool"
        }
      ],
      "stateMutability": "view",
      "type": "function",
      "constant": true
    },
    {
      "inputs": [
        {
          "internalType": "uint256",
          "name": "",
          "type": "uint256"
        }
      ],
      "name": "nodeWeightsHashes",
      "outputs": [
        {
          "internalType": "string",
          "name": "",
          "type": "string"
        }
      ],
      "stateMutability": "view",
      "type": "function",
      "constant": true
    },
    {
      "inputs": [],
      "name": "owner",
      "outputs": [
        {
          "internalType": "address",
          "name": "",
          "type": "address"
        }
      ],
      "stateMutability": "view",
      "type": "function",
      "constant": true
    },
    {
      "inputs": [
        {
          "internalType": "address",
          "name": "collaborator",
          "type": "address"
        }
      ],
      "name": "addCollaborator",
      "outputs": [],
      "stateMutability": "nonpayable",
      "type": "function"
    },
    {
      "inputs": [
        {
          "internalType": "address",
          "name": "collaborator",
          "type": "address"
        }
      ],
      "name": "removeCollaborator",
      "outputs": [],
      "stateMutability": "nonpayable",
      "type": "function"
    },
    {
      "inputs": [
        {
          "internalType": "uint256",
          "name": "nodeId",
          "type": "uint256"
        },
        {
          "internalType": "string",
          "name": "weightsHash",
          "type": "string"
        }
      ],
      "name": "storeNodeWeights",
      "outputs": [],
      "stateMutability": "nonpayable",
      "type": "function"
    },
    {
      "inputs": [
        {
          "internalType": "uint256",
          "name": "nodeId",
          "type": "uint256"
        }
      ],
      "name": "getNodeWeightsHash",
      "outputs": [
        {
          "internalType": "string",
          "name": "",
          "type": "string"
        }
      ],
      "stateMutability": "view",
      "type": "function",
      "constant": true
    },
    {
      "inputs": [
        {
          "internalType": "string",
          "name": "weightsHash",
          "type": "string"
        }
      ],
      "name": "storeAggregatedWeights",
      "outputs": [],
      "stateMutability": "nonpayable",
      "type": "function"
    },
    {
      "inputs": [],
      "name": "getAggregatedWeightsHash",
      "outputs": [
        {
          "internalType": "string",
          "name": "",
          "type": "string"
        }
      ],
      "stateMutability": "view",
      "type": "function",
      "constant": true
    }
  ],
  "bytecode": "0x608060405234801561001057600080fd5b50336000806101000a81548173ffffffffffffffffffffffffffffffffffffffff021916908373ffffffffffffffffffffffffffffffffffffffff160217905550610eaf806100606000396000f3fe608060405234801561001057600080fd5b506004361061009e5760003560e01c8063b9f13be011610066578063b9f13be014610147578063ccdbe6a614610177578063d2a749b814610193578063e32b8842146101c3578063f66faf78146101e15761009e565b80631de8c981146100a35780633109c19d146100bf5780638da5cb5b146100db57806397099e1c146100f9578063a338160514610117575b600080fd5b6100bd60048036038101906100b89190610a2a565b6101fd565b005b6100d960048036038101906100d49190610a01565b6102dc565b005b6100e3610408565b6040516100f09190610c0b565b60405180910390f35b61010161042c565b60405161010e9190610c41565b60405180910390f35b610131600480360381019061012c9190610a6b565b6104be565b60405161013e9190610c41565b60405180910390f35b610161600480360381019061015c9190610a01565b610563565b60405161016e9190610c26565b60405180910390f35b610191600480360381019061018c9190610a01565b610583565b005b6101ad60048036038101906101a89190610a6b565b6106ae565b6040516101ba9190610c41565b60405180910390f35b6101cb61074e565b6040516101d89190610c41565b60405180910390f35b6101fb60048036038101906101f69190610a94565b6107dc565b005b60008054906101000a900473ffffffffffffffffffffffffffffffffffffffff1673ffffffffffffffffffffffffffffffffffffffff163373ffffffffffffffffffffffffffffffffffffffff161461028b576040517f08c379a000000000000000000000000000000000000000000000000000000000815260040161028290610c63565b60405180910390fd5b80600390805190602001906102a19291906108cc565b507fcfa6cf4a2145c96970074e00bf71a96366e666cdff4dd56dd45dbec38f8bab52816040516102d19190610c41565b60405180910390a150565b60008054906101000a900473ffffffffffffffffffffffffffffffffffffffff1673ffffffffffffffffffffffffffffffffffffffff163373ffffffffffffffffffffffffffffffffffffffff161461036a576040517f08c379a000000000000000000000000000000000000000000000000000000000815260040161036190610c63565b60405180910390fd5b6000600160008373ffffffffffffffffffffffffffffffffffffffff1673ffffffffffffffffffffffffffffffffffffffff16815260200190815260200160002060006101000a81548160ff0219169083151502179055508073ffffffffffffffffffffffffffffffffffffffff167f462d5465fb03f75fbc7041bd2793aa7a31228200b8b06932d8d09a1ab07d307d60405160405180910390a250565b60008054906101000a900473ffffffffffffffffffffffffffffffffffffffff1681565b60606003805461043b90610daa565b80601f016020809104026020016040519081016040528092919081815260200182805461046790610daa565b80156104b45780601f10610489576101008083540402835291602001916104b4565b820191906000526020600020905b81548152906001019060200180831161049757829003601f168201915b5050505050905090565b60606002600083815260200190815260200160002080546104de90610daa565b80601f016020809104026020016040519081016040528092919081815260200182805461050a90610daa565b80156105575780601f1061052c57610100808354040283529160200191610557565b820191906000526020600020905b81548152906001019060200180831161053a57829003601f168201915b50505050509050919050565b60016020528060005260406000206000915054906101000a900460ff1681565b60008054906101000a900473ffffffffffffffffffffffffffffffffffffffff1673ffffffffffffffffffffffffffffffffffffffff163373ffffffffffffffffffffffffffffffffffffffff1614610611576040517f08c379a000000000000000000000000000000000000000000000000000000000815260040161060890610c63565b60405180910390fd5b60018060008373ffffffffffffffffffffffffffffffffffffffff1673ffffffffffffffffffffffffffffffffffffffff16815260200190815260200160002060006101000a81548160ff0219169083151502179055508073ffffffffffffffffffffffffffffffffffffffff167f4e94d74a2e4483c0539321ba103f7f9a703453da02945cf5b2fabef18e688ef260405160405180910390a250565b600260205280600052604060002060009150905080546106cd90610daa565b80601f01602080910402602001604051908101604052809291908181526020018280546106f990610daa565b80156107465780601f1061071b57610100808354040283529160200191610746565b820191906000526020600020905b81548152906001019060200180831161072957829003601f168201915b505050505081565b6003805461075b90610daa565b80601f016020809104026020016040519081016040528092919081815260200182805461078790610daa565b80156107d45780601f106107a9576101008083540402835291602001916107d4565b820191906000526020600020905b8154815290600101906020018083116107b757829003601f168201915b505050505081565b600160003373ffffffffffffffffffffffffffffffffffffffff1673ffffffffffffffffffffffffffffffffffffffff16815260200190815260200160002060009054906101000a900460ff16610868576040517f08c379a000000000000000000000000000000000000000000000000000000000815260040161085f90610c83565b60405180910390fd5b8060026000848152602001908152602001600020908051906020019061088f9291906108cc565b50817f86c878157fff54e11672f8273e76e7aa3586ccdb8a4bf188891b26c0c4f7d34b826040516108c09190610c41565b60405180910390a25050565b8280546108d890610daa565b90600052602060002090601f0160209004810192826108fa5760008555610941565b82601f1061091357805160ff1916838001178555610941565b82800160010185558215610941579182015b82811115610940578251825591602001919060010190610925565b5b50905061094e9190610952565b5090565b5b8082111561096b576000816000905550600101610953565b5090565b600061098261097d84610cd4565b610ca3565b90508281526020810184848401111561099a57600080fd5b6109a5848285610d68565b509392505050565b6000813590506109bc81610e4b565b92915050565b600082601f8301126109d357600080fd5b81356109e384826020860161096f565b91505092915050565b6000813590506109fb81610e62565b92915050565b600060208284031215610a1357600080fd5b6000610a21848285016109ad565b91505092915050565b600060208284031215610a3c57600080fd5b600082013567ffffffffffffffff811115610a5657600080fd5b610a62848285016109c2565b91505092915050565b600060208284031215610a7d57600080fd5b6000610a8b848285016109ec565b91505092915050565b60008060408385031215610aa757600080fd5b6000610ab5858286016109ec565b925050602083013567ffffffffffffffff811115610ad257600080fd5b610ade858286016109c2565b9150509250929050565b610af181610d20565b82525050565b610b0081610d32565b82525050565b6000610b1182610d04565b610b1b8185610d0f565b9350610b2b818560208601610d77565b610b3481610e3a565b840191505092915050565b6000610b4c602683610d0f565b91507f4f6e6c7920746865206f776e65722063616e2063616c6c20746869732066756e60008301527f6374696f6e2e00000000000000000000000000000000000000000000000000006020830152604082019050919050565b6000610bb2602b83610d0f565b91507f4f6e6c79206120636f6c6c61626f7261746f722063616e2063616c6c2074686960008301527f732066756e6374696f6e2e0000000000000000000000000000000000000000006020830152604082019050919050565b6000602082019050610c206000830184610ae8565b92915050565b6000602082019050610c3b6000830184610af7565b92915050565b60006020820190508181036000830152610c5b8184610b06565b905092915050565b60006020820190508181036000830152610c7c81610b3f565b9050919050565b60006020820190508181036000830152610c9c81610ba5565b9050919050565b6000604051905081810181811067ffffffffffffffff82111715610cca57610cc9610e0b565b5b8060405250919050565b600067ffffffffffffffff821115610cef57610cee610e0b565b5b601f19601f8301169050602081019050919050565b600081519050919050565b600082825260208201905092915050565b6000610d2b82610d3e565b9050919050565b60008115159050919050565b600073ffffffffffffffffffffffffffffffffffffffff82169050919050565b6000819050919050565b82818337600083830152505050565b60005b83811015610d95578082015181840152602081019050610d7a565b83811115610da4576000848401525b50505050565b60006002820490506001821680610dc257607f821691505b60208210811415610dd657610dd5610ddc565b5b50919050565b7f4e487b7100000000000000000000000000000000000000000000000000000000600052602260045260246000fd5b7f4e487b7100000000000000000000000000000000000000000000000000000000600052604160045260246000fd5b6000601f19601f8301169050919050565b610e5481610d20565b8114610e5f57600080fd5b50565b610e6b81610d5e565b8114610e7657600080fd5b5056fea26469706673582212207733cec0c47a9a6bf138ea4f06ba9709e9dc73df126b9f3daec7b2e75d3ed4d164736f6c63430008000033",
  "immutableReferences": {},
  "source": "// SPDX-License-Identifier: MIT\r\npragma solidity ^0.8.0;\r\n\r\ncontract NeuralNetworkWeights {\r\n    address public owner;\r\n    mapping(address => bool) public collaborators;\r\n    mapping(uint => string) public nodeWeightsHashes; // Mapping to store IPFS hashes of individual nodes\r\n    string public aggregatedWeightsHash; // Variable to store IPFS hash of the aggregated model\r\n\r\n    // Event declarations\r\n    event CollaboratorAdded(address indexed collaborator);\r\n    event CollaboratorRemoved(address indexed collaborator);\r\n    event WeightsStored(uint indexed nodeId, string weightsHash);\r\n    event AggregatedWeightsStored(string weightsHash);\r\n\r\n    constructor() {\r\n        owner = msg.sender;\r\n    }\r\n\r\n    modifier onlyOwner() {\r\n        require(msg.sender == owner, \"Only the owner can call this function.\");\r\n        _;\r\n    }\r\n\r\n    modifier onlyCollaborator() {\r\n        require(collaborators[msg.sender], \"Only a collaborator can call this function.\");\r\n        _;\r\n    }\r\n\r\n    // Add a collaborator\r\n    function addCollaborator(address collaborator) public onlyOwner {\r\n        collaborators[collaborator] = true;\r\n        emit CollaboratorAdded(collaborator);\r\n    }\r\n\r\n    // Remove a collaborator\r\n    function removeCollaborator(address collaborator) public onlyOwner {\r\n        collaborators[collaborator] = false;\r\n        emit CollaboratorRemoved(collaborator);\r\n    }\r\n\r\n    // Store IPFS hash for a node's weights\r\n    function storeNodeWeights(uint nodeId, string memory weightsHash) public onlyCollaborator {\r\n        nodeWeightsHashes[nodeId] = weightsHash;\r\n        emit WeightsStored(nodeId, weightsHash);\r\n    }\r\n\r\n    // Retrieve IPFS hash for a node's weights\r\n    function getNodeWeightsHash(uint nodeId) public view returns (string memory) {\r\n        return nodeWeightsHashes[nodeId];\r\n    }\r\n\r\n    // Store IPFS hash for the aggregated model's weights\r\n    function storeAggregatedWeights(string memory weightsHash) public onlyOwner {\r\n        aggregatedWeightsHash = weightsHash;\r\n        emit AggregatedWeightsStored(weightsHash);\r\n    }\r\n\r\n    // Retrieve IPFS hash for the aggregated model's weights\r\n    function getAggregatedWeightsHash() public view returns (string memory) {\r\n        return aggregatedWeightsHash;\r\n    }\r\n}\r\n",
  "sourcePath": "C:\\Users\\alexl\\PycharmProjects\\FL_BC\\contracts\\NeuralNetworkWeights.sol",
  "compiler": {
    "name": "solc",
    "version": "0.8.0+commit.c7dfd78e.Emscripten.clang"
  },
  "schemaVersion": "3.4.16",
  "updatedAt": "2023-12-29T20:58:03.089Z",
  "networkType": "ethereum",
  "devdoc": {
    "kind": "dev",
    "methods": {},
    "version": 1
  },
  "userdoc": {
    "kind": "user",
    "methods": {},
    "version": 1
  }
}