{
  "contractName": "NumberListContract",
  "abi": [
    {
      "inputs": [],
      "stateMutability": "nonpayable",
      "type": "constructor"
    },
    {
      "inputs": [
        {
          "internalType": "address",
          "name": "",
          "type": "address"
        }
      ],
      "name": "collaborators",
      "outputs": [
        {
          "internalType": "bool",
          "name": "",
          "type": "bool"
        }
      ],
      "stateMutability": "view",
      "type": "function",
      "constant": true
    },
    {
      "inputs": [],
      "name": "owner",
      "outputs": [
        {
          "internalType": "address",
          "name": "",
          "type": "address"
        }
      ],
      "stateMutability": "view",
      "type": "function",
      "constant": true
    },
    {
      "inputs": [
        {
          "internalType": "address",
          "name": "collaborator",
          "type": "address"
        }
      ],
      "name": "addCollaborator",
      "outputs": [],
      "stateMutability": "nonpayable",
      "type": "function"
    },
    {
      "inputs": [
        {
          "internalType": "address",
          "name": "collaborator",
          "type": "address"
        }
      ],
      "name": "removeCollaborator",
      "outputs": [],
      "stateMutability": "nonpayable",
      "type": "function"
    },
    {
      "inputs": [
        {
          "internalType": "uint256",
          "name": "number",
          "type": "uint256"
        }
      ],
      "name": "addNumber",
      "outputs": [],
      "stateMutability": "nonpayable",
      "type": "function"
    },
    {
      "inputs": [
        {
          "internalType": "uint256",
          "name": "index",
          "type": "uint256"
        }
      ],
      "name": "deleteNumber",
      "outputs": [],
      "stateMutability": "nonpayable",
      "type": "function"
    },
    {
      "inputs": [],
      "name": "getNumbers",
      "outputs": [
        {
          "internalType": "uint256[]",
          "name": "",
          "type": "uint256[]"
        }
      ],
      "stateMutability": "view",
      "type": "function",
      "constant": true
    }
  ],
  "bytecode": "0x608060405234801561001057600080fd5b50336000806101000a81548173ffffffffffffffffffffffffffffffffffffffff021916908373ffffffffffffffffffffffffffffffffffffffff160217905550610a82806100606000396000f3fe608060405234801561001057600080fd5b506004361061007d5760003560e01c80638da5cb5b1161005b5780638da5cb5b146100d8578063b9f13be0146100f6578063ccdbe6a614610126578063fce68023146101425761007d565b8063067cda81146100825780633109c19d1461009e57806389f915f6146100ba575b600080fd5b61009c60048036038101906100979190610699565b61015e565b005b6100b860048036038101906100b39190610670565b610320565b005b6100c2610409565b6040516100cf919061088c565b60405180910390f35b6100e0610461565b6040516100ed9190610871565b60405180910390f35b610110600480360381019061010b9190610670565b610485565b60405161011d91906108ae565b60405180910390f35b610140600480360381019061013b9190610670565b6104a5565b005b61015c60048036038101906101579190610699565b61058e565b005b60008054906101000a900473ffffffffffffffffffffffffffffffffffffffff1673ffffffffffffffffffffffffffffffffffffffff163373ffffffffffffffffffffffffffffffffffffffff16146101ec576040517f08c379a00000000000000000000000000000000000000000000000000000000081526004016101e3906108c9565b60405180910390fd5b6001805490508110610233576040517f08c379a000000000000000000000000000000000000000000000000000000000815260040161022a906108e9565b60405180910390fd5b60018080805490506102459190610973565b8154811061027c577f4e487b7100000000000000000000000000000000000000000000000000000000600052603260045260246000fd5b9060005260206000200154600182815481106102c1577f4e487b7100000000000000000000000000000000000000000000000000000000600052603260045260246000fd5b90600052602060002001819055506001805480610307577f4e487b7100000000000000000000000000000000000000000000000000000000600052603160045260246000fd5b6001900381819060005260206000200160009055905550565b60008054906101000a900473ffffffffffffffffffffffffffffffffffffffff1673ffffffffffffffffffffffffffffffffffffffff163373ffffffffffffffffffffffffffffffffffffffff16146103ae576040517f08c379a00000000000000000000000000000000000000000000000000000000081526004016103a5906108c9565b60405180910390fd5b6000600260008373ffffffffffffffffffffffffffffffffffffffff1673ffffffffffffffffffffffffffffffffffffffff16815260200190815260200160002060006101000a81548160ff02191690831515021790555050565b6060600180548060200260200160405190810160405280929190818152602001828054801561045757602002820191906000526020600020905b815481526020019060010190808311610443575b5050505050905090565b60008054906101000a900473ffffffffffffffffffffffffffffffffffffffff1681565b60026020528060005260406000206000915054906101000a900460ff1681565b60008054906101000a900473ffffffffffffffffffffffffffffffffffffffff1673ffffffffffffffffffffffffffffffffffffffff163373ffffffffffffffffffffffffffffffffffffffff1614610533576040517f08c379a000000000000000000000000000000000000000000000000000000000815260040161052a906108c9565b60405180910390fd5b6001600260008373ffffffffffffffffffffffffffffffffffffffff1673ffffffffffffffffffffffffffffffffffffffff16815260200190815260200160002060006101000a81548160ff02191690831515021790555050565b600260003373ffffffffffffffffffffffffffffffffffffffff1673ffffffffffffffffffffffffffffffffffffffff16815260200190815260200160002060009054906101000a900460ff1661061a576040517f08c379a000000000000000000000000000000000000000000000000000000000815260040161061190610909565b60405180910390fd5b600181908060018154018082558091505060019003906000526020600020016000909190919091505550565b60008135905061065581610a1e565b92915050565b60008135905061066a81610a35565b92915050565b60006020828403121561068257600080fd5b600061069084828501610646565b91505092915050565b6000602082840312156106ab57600080fd5b60006106b98482850161065b565b91505092915050565b60006106ce8383610862565b60208301905092915050565b6106e3816109a7565b82525050565b60006106f482610939565b6106fe8185610951565b935061070983610929565b8060005b8381101561073a57815161072188826106c2565b975061072c83610944565b92505060018101905061070d565b5085935050505092915050565b610750816109b9565b82525050565b6000610763602783610962565b91507f4f6e6c7920746865206f776e65722063616e20706572666f726d20746869732060008301527f616374696f6e2e000000000000000000000000000000000000000000000000006020830152604082019050919050565b60006107c9601383610962565b91507f496e646578206f7574206f6620626f756e6473000000000000000000000000006000830152602082019050919050565b6000610809602c83610962565b91507f4f6e6c79206120636f6c6c61626f7261746f722063616e20706572666f726d2060008301527f7468697320616374696f6e2e00000000000000000000000000000000000000006020830152604082019050919050565b61086b816109e5565b82525050565b600060208201905061088660008301846106da565b92915050565b600060208201905081810360008301526108a681846106e9565b905092915050565b60006020820190506108c36000830184610747565b92915050565b600060208201905081810360008301526108e281610756565b9050919050565b60006020820190508181036000830152610902816107bc565b9050919050565b60006020820190508181036000830152610922816107fc565b9050919050565b6000819050602082019050919050565b600081519050919050565b6000602082019050919050565b600082825260208201905092915050565b600082825260208201905092915050565b600061097e826109e5565b9150610989836109e5565b92508282101561099c5761099b6109ef565b5b828203905092915050565b60006109b2826109c5565b9050919050565b60008115159050919050565b600073ffffffffffffffffffffffffffffffffffffffff82169050919050565b6000819050919050565b7f4e487b7100000000000000000000000000000000000000000000000000000000600052601160045260246000fd5b610a27816109a7565b8114610a3257600080fd5b50565b610a3e816109e5565b8114610a4957600080fd5b5056fea2646970667358221220c8da907e3bb44af920af39dc63dd8f843e156573bcee9c0a4368fa1afc53169164736f6c63430008000033",
  "immutableReferences": {},
  "source": "// SPDX-License-Identifier: MIT\r\npragma solidity ^0.8.0;\r\n\r\ncontract NumberListContract {\r\n    address public owner;\r\n    uint[] private numbers;\r\n    mapping(address => bool) public collaborators;\r\n\r\n    constructor() {\r\n        owner = msg.sender;\r\n    }\r\n\r\n    modifier onlyOwner() {\r\n        require(msg.sender == owner, \"Only the owner can perform this action.\");\r\n        _;\r\n    }\r\n\r\n    modifier onlyCollaborator() {\r\n        require(collaborators[msg.sender], \"Only a collaborator can perform this action.\");\r\n        _;\r\n    }\r\n\r\n    function addCollaborator(address collaborator) public onlyOwner {\r\n        collaborators[collaborator] = true;\r\n    }\r\n\r\n    function removeCollaborator(address collaborator) public onlyOwner {\r\n        collaborators[collaborator] = false;\r\n    }\r\n\r\n    function addNumber(uint number) public onlyCollaborator {\r\n        numbers.push(number);\r\n    }\r\n\r\n    function deleteNumber(uint index) public onlyOwner {\r\n        require(index < numbers.length, \"Index out of bounds\");\r\n        numbers[index] = numbers[numbers.length - 1];\r\n        numbers.pop();\r\n    }\r\n\r\n    function getNumbers() public view returns (uint[] memory) {\r\n        return numbers;\r\n    }\r\n}\r\n",
  "sourcePath": "C:\\Users\\alexl\\PycharmProjects\\FL_BC\\contracts\\NumberListContract.sol",
  "compiler": {
    "name": "solc",
    "version": "0.8.0+commit.c7dfd78e.Emscripten.clang"
  },
  "schemaVersion": "3.4.16",
  "updatedAt": "2023-12-16T20:54:04.261Z",
  "networkType": "ethereum",
  "devdoc": {
    "kind": "dev",
    "methods": {},
    "version": 1
  },
  "userdoc": {
    "kind": "user",
    "methods": {},
    "version": 1
  }
}